:020000040000FA
:10000000086C0010F901000001020000030200006A
:1000100005020000070200000902000000000000C5
:10002000000000000000000000000000610100006E
:100030000D02000000000000A5010000DD1200001C
:10004000130200001302000013020000130200005C
:1000500013020000A10900001302000013020000B7
:10006000130200001302000013020000130200003C
:10007000130200001302000013020000130200002C
:10008000130200001302000013020000130200001C
:10009000130200001302000013020000130200000C
:1000A000550A0000130200001302000013020000B2
:1000B0001D040000130200001302000013020000E0
:1000C0001302000000F002F800F03AF80AA090E8ED
:1000D000000C82448344AAF10107DA4501D100F003
:1000E0002FF8AFF2090EBAE80F0013F0010F18BF96
:1000F000FB1A43F0010318472C1600004C160000B1
:10010000103A24BF78C878C1FAD8520724BF30C843
:1001100030C144BF04680C60704700000023002415
:1001200000250026103A28BF78C1FBD8520728BF07
:1001300030C148BF0B6070471FB51FBD10B510BD63
:1001400000F0DEF81146FFF7F7FF00F047FD00F082
:10015000C5F803B4FFF7F2FF03BC00F0F7F80000A6
:10016000224B19680868B0E8F00F80F30988BFF3E4
:100170006F8F4FF0000080F311884EF00D0E704726
:100180000000000006480068006880F3088862B636
:1001900061B6BFF34F8FBFF36F8F00DF00BF00BFAB
:1001A00008ED00E0EFF30980BFF36F8F0F4B1A6883
:1001B00020E9F00F106008B54FF0280080F3118897
:1001C000BFF34F8FBFF36F8F01F014F84FF00000B3
:1001D00080F31188BDE8084019680868B0E8F00F9E
:1001E00080F30988BFF36F8F704700BF7400001061
:1001F000EFF3058070470000094880470948004731
:10020000FEE7FEE7FEE7FEE7FEE7FEE7FEE7FEE7C6
:10021000FEE7FEE704480549034A054B7047000026
:100220007D070000C5000000086A0010086C00107F
:10023000086A001002F0FF0343EA032242EA024286
:1002400000F005B87047704770474FF0000204296E
:10025000C0F0128010F0030C00F01B80CCF1040CF5
:10026000BCF1020F18BF00F8012BA8BF20F8022B29
:10027000A1EB0C0100F00DB85FEAC17C24BF00F8CF
:10028000012B00F8012B48BF00F8012B70474FF0FD
:10029000000200B5134694469646203922BFA0E8D6
:1002A0000C50A0E80C50B1F12001BFF4F7AF0907E2
:1002B00028BFA0E80C5048BF0CC05DF804EB8900D3
:1002C00028BF40F8042B08BF704748BF20F8022B16
:1002D00011F0804F18BF00F8012B704710B504468D
:1002E000AFF300802046BDE81040FFF732BF0000AA
:1002F00000487047A869001070477047FFFFFFFF74
:100300007546FFF7F5FFAE4605006946534620F0F7
:100310000700854618B020B5FFF77CFFBDE82040F8
:100320004FF000064FF000074FF000084FF0000BB1
:1003300021F00701AC46ACE8C009ACE8C009ACE864
:10034000C009ACE8C0098D4670470000014918207B
:10035000ABBEFEE72600020010B504464CB91248B9
:1003600001681248D0F828210F4808380068431C5B
:1003700009E00D48143801680C48D0F814210A48E7
:100380001C380068431C914201D1002010BD21B9E6
:10039000581E904201D10220F8E7501C814201D141
:1003A0000220F3E70120F1E72C410820004008205B
:1003B00003480168C80000F1005000687047000061
:1003C0001841082004480168C80000F10050008C62
:1003D000C0F30A00401C7047184108200348016818
:1003E000C80000F10050006A704700001841082062
:1003F00003480168880000F10050806D70470000DC
:100400002841082004490868411C0846042900D1F5
:100410000020014908607047184108202DE9F0418B
:10042000F8E08248056005F0030000283DD0FFF7A2
:10043000D5FF0646002406F4000008B1102000E0B5
:100440000020044306F0807008B1082000E000207E
:10045000044306F0007008B1042000E000200443CB
:10046000C6F3C060044306F0805008B1402000E0AD
:100470000020044306F0005008B1202000E00020D6
:10048000044306F4801010B14FF4805000E00020C7
:10049000044314B925F0020506E06548006A18B166
:1004A0006348016A2046884700BF05F0300090B3DA
:1004B000FFF79EFF0646002406F0806010B14FF45F
:1004C000007000E00020044306F0006010B14FF41B
:1004D000807000E00020044306F0805008B18020C6
:1004E00000E00020044306F0005010B14FF480609B
:1004F00000E00020044306F0804010B14FF400609B
:1005000000E0002004434A48006A18B14848016AE4
:100510002046884700BF05F0080000285FD0012072
:10052000FFF71AFF00285AD0FFF74CFF0746002FAD
:1005300055DDFF1EFFF752FF3E49084000284ED10F
:100540003D48007800EB40003C4901EB80203C49ED
:10055000096800EB4104FFF72BFF064638480068A6
:1005600038443749086008460068B0F5C06F09D3C1
:10057000002008602E48006A80B32D48016A0420DC
:1005800088472BE004E036F8020B24F8020BBF1E6C
:10059000002FF8DCFFF722FF00F08040E0B1244894
:1005A000806958B12449097801EB4101234B03EBE1
:1005B00081201F498A692249096890470020204903
:1005C00008601D480078401C1B49087008460078E8
:1005D000022801DB00200870FFF714FF00BF05F0C0
:1005E000400028B11248C06910B11149C86980475C
:1005F00005F4805028B10E48806A10B10C49886A11
:10060000804705F4005028B10948406A10B10849F4
:10061000486A80470548083800680449091F096886
:100620000840051E7FF4FDAEBDE8F081E84F0820CC
:10063000B40000100000901B04000010E000001047
:100640000000001010B5082002490866092000F0DB
:10065000FBF810BD008009202DE9F04104460E464C
:1006600017469846DCB11C2E19D3254600F030FD04
:10067000A6F11800E881E9892C4605F11800084424
:10068000A86005F11800286068600020A8812F612B
:10069000C5F8148000F02EFD0120BDE8F081FF2098
:1006A000FBE770B50446002524B100F011FDA589D3
:1006B00000F020FD284670BD2DE9F04106460D46AC
:1006C000FF270DB32C4600F003FDA089002811DDA3
:1006D0002068007830702068401C2060A168206885
:1006E000884202D304F118002060A089401EA08136
:1006F000012707E00427206920B1214630462269FE
:100700009047074600F0F6FC3846BDE8F08170B52A
:100710000446002524B100F0DBFCE58900F0EAFC8A
:10072000284670BD2DE9F04105460E46FF2715B35A
:100730002C4600F0CDFCA089E189884210DA60687F
:1007400006706068401C6060D4E90101884202D3F1
:1007500004F118006060A089401CA081012708E016
:100760000827606928B1012231462046636998470D
:10077000074600F0BFFC3846BDE8F08121202E4935
:10078000086000BF2C48006800F040000028F9D045
:10079000012029499439086009202849C1F88400BA
:1007A0000120264980310860AA2024498C31086044
:1007B0005520086000BF21488830006800F4806040
:1007C0000028F8D023201D49A431086001201B49CE
:1007D000C1F8A000AA201949AC310860552017497A
:1007E000C1F8AC0000BF1548A830006800F4806074
:1007F0000028F8D040F201100F499C39086040F2FF
:1008000001200E49C1F8080101200B49A0390860F8
:10081000022009490831086009480849C4310860C4
:10082000881505492831086045F23A0003490860F7
:100830000020044908607047A0C10F4000C00F406D
:10084000DE87280408ED00E070B5064636480068EB
:1008500040F008003449C439C1F8C40001203349CC
:100860008860C8600A2E21D2DFE806F02005080B58
:100870000E1114171A1D4FF4166418E04FF4965415
:1008800015E04FF4165412E04FF461540FE04FF4AA
:1008900096440CE04FF4164409E04DF6C02406E0FF
:1008A0004FF4614403E04FF4E13400E000BF00BFC7
:1008B00080201F4908731F4800680009B0FBF4F04E
:1008C00085B22846E91705EB1161090A184A11712A
:1008D000E91705EB11610912A5EB01211170032045
:1008E0001146087305204860872008720520012101
:1008F00081404209920002F1E022C2F8001100BFDB
:100900000D4B00224FF480610C48FFF7A5FEFF2835
:1009100001D1002070BD03220021012000F0F8FC6D
:10092000074908600120F5E7C4C00F4000C002403D
:1009300000C0004058000010A90B0000E018001093
:100940006400001038B5044621460D48FFF7EAFE62
:1009500000F0BEFB0B48007D00F0200060B10849AC
:100960006846FFF7A9FE9DF8000006490870084692
:10097000406840F00200486000F0BCFB38BD000059
:10098000E018001000C0004010B5044603E014F861
:10099000010BFFF7D7FF20780028F8D110BD000029
:1009A00038B500F095FB43E004F00E00022806D0B5
:1009B00004281CD0062826D00C2834D127E0002596
:1009C00012E020496846FFF777FE012804D19DF820
:1009D00000001D49087005E01B48406820F0020037
:1009E00019494860681CC5B2102DEADB1FE01749A1
:1009F0001748006800F0E8FC1348406820F0010048
:100A00001149486013E01048007D00900FE00F4945
:100A10000F48006800F0D8FC0B48406820F0010047
:100A20000949486003E00848007D009000BF00BF0E
:100A300005488068C4B204F001000028B4D000F07A
:100A400059FB38BDE018001000C0004068000010DD
:100A5000640000104D4AD068116900EA010202B931
:100A60007047084000F04002002A75D0474A526D96
:100A700002F4803262B3454A126D02F4004232B190
:100A8000434A126842F00102414B1A601CE03F4A9F
:100A9000526D02F0010272B100223E4B1A703E4BC1
:100AA0001A603B4A126842F00102394B1A60012277
:100AB0003A4B1A6008E0364A126822F00102344BC1
:100AC0001A600022354B1A604FF480322F4B5A6562
:100AD0002E4A926D02F4803262B32C4A126D02F4F7
:100AE000004232B12A4A126842F00202284B1A60D0
:100AF0001CE0264A926D02F0010272B10022254BE1
:100B00001A70254B1A60224A126842F00202204BEA
:100B10001A600122214B1A6008E01D4A126822F077
:100B200002021B4B1A6000221C4B1A604FF48032E9
:100B3000164B9A65154A526D02F480121AB14FF4A1
:100B40008012124B5A65114A926D02F480121AB14A
:100B50004FF480120D4B9A6500F0020252B101224F
:100B60000D4B1A600E4A126812680F2303EA1272C4
:100B7000084B1A7000F0100222B10A4A1268521C87
:100B8000084B1A60014AD06000BF69E700C0082026
:100B900010000010180000101400001008000010D1
:100BA00028000010440000102DE9F04105460E46D3
:100BB000144600BF2846FFF7AAFD074602E00A20B8
:100BC00000F0C2FA2846FFF76CFDB842F7DA31466A
:100BD0002846FFF7A7FDBDE8F08100001CB5FFF730
:100BE000CDFDFFF72FFD0020022103461922CDE99C
:100BF00000100EA10E4800F023FC00200321034644
:100C00001922CDE900100BA10B4800F019FC0020BF
:100C1000042103461922CDE9001008A1084800F07C
:100C20000FFC00F0ABFA00BFFEE700005744540091
:100C3000551200005443500029110000415050004B
:100C40003D1000002DE9F04105460E461C4807689E
:100C50001C480068001D00F0DDF950B91948006813
:100C600090F82C10012088401749096881431648E4
:100C70000160681C38B936B112480168091D134873
:100C800000F01AFA1AE07C190E4800684460BC4271
:100C900007D20C480168091D0D48006800F0F2F900
:100CA0000CE008480168091D0A48006800F0EAF9EC
:100CB00009480068844201D207480460BDE8F08119
:100CC00088000010740000108C000010946900105F
:100CD0007C00001078000010A400001010B504463D
:100CE00000F0F6F924480068401C234908602348B6
:100CF000006840B9214804600846006801280DD109
:100D000000F0E4F80AE01E48006838B91B480068A3
:100D1000C06AE16A884201D818480460194800682E
:100D2000401C1849086008460068206494F82C109C
:100D30000120884014490968084313490860E16AA2
:100D400001EB8101114A02EB8100211D00F0B4F991
:100D500000F0D0F90A48006868B108480068C06A25
:100D6000E16A884207D24FF0805009490860BFF31A
:100D70004F8FBFF36F8F10BD840000107400001000
:100D800090000010A00000108C000010E06800101F
:100D900004ED00E070B523E000F024FA1348006889
:100DA00008B9012000E00020054600F047FCBDB96D
:100DB00000F08EF90D48C068C468201D00F02AF9C3
:100DC0000B480068401E0A4908600A480068401E37
:100DD0000849086000F08EF9204600F00DF800BFC9
:100DE000044800680028D7D170BD00008069001059
:100DF000840000108000001010B50446206BFFF73F
:100E00007CFA2046FFF779FA10BD00BFFFF7C2FF5A
:100E1000FCE72DE9F04106460D4617469846069C2C
:100E20000DB9246000E02760E663256401212046B7
:100E300000F08AFA84F84C80BDE8F0812DE9F05F7B
:100E400081460F4690469A460A9E0C9C4FEA8801BE
:100E5000A522206BFFF7EEF9A8F10100216B01EB51
:100E6000800B2BF0070B002507E0795D04F13400BF
:100E70004155785D00B902E06D1C0C2DF5D300BF23
:100E800000213F200155052E00D30426E662A6640A
:100E90000020E064201D00F0F2F804F1180000F0DA
:100EA000EEF82461C6F10500A061646200202065AF
:100EB00084F8540052464946584600F099F820609C
:100EC0000B9808B10B980460BDE8F09F10B50024A2
:100ED00007E004EB84010F4A02EB810000F0C2F846
:100EE000641C052CF5D30C4800F0BCF80B4800F04E
:100EF000B9F80B4800F0B6F80A4800F0B3F80A4811
:100F000000F0B0F80448094908600448084908603E
:100F100010BD0000E068001044690010586900101E
:100F20006C6900108069001094690010780000104E
:100F30007C0000100A490968096809B9012100E02C
:100F4000002121B14FF0FF31064A116006E004494B
:100F50000968C968C868034A4168116070470000A1
:100F600078000010A400001000BF282080F3118832
:100F7000BFF34F8FBFF36F8F00BF00BFFEE70000CE
:100F800070B50446002504F0070020B104F0070006
:100F9000C0F10800044400F025F91248006820B9A7
:100FA000114820F007000F490860104800682044ED
:100FB00044F6F831884210D20C48006820440B49AE
:100FC0000968884209D9074800680849096845182E
:100FD0000648006820440549086000F02FFB2846B9
:100FE00070BD000070000010E81C00106C000010C4
:100FF000001F4FF080730360001F21F001030360A6
:10100000001F034B03601438026020387047000053
:10101000690F000001460A69D1E901309860D1E901
:10102000010358605068884201D1886850600020F0
:1010300008611068401E10601068704706E004A048
:10104000FFF7A2FC4FF47A7000F07EF8F7E700009B
:101050006262626262626262620D0A0002200021C4
:101060000122704700F1080141604FF0FF318160BB
:1010700000F10801C1600161002101607047002199
:101080000161704710B502460B685C1C0CB9106911
:1010900007E002F1080000E04068446824689C42D0
:1010A000FAD944684C604C68A160886041600A616C
:1010B0001468641C146010BD42684A6093688B60B9
:1010C000936859609160086103685B1C0360704716
:1010D00000BF282080F31188BFF34F8FBFF36F8FBD
:1010E00000BF03480068401C0149086070470000C9
:1010F000B000001006480068401E05490860084618
:10110000006820B9002080F3118800BF00BF70473D
:10111000B000001003484FF0E0214861072008614B
:1011200070470000BFD4010006E004A0FFF72CFCCC
:101130004FF47A7000F008F8F7E700006161616130
:10114000616161610D0A000070B50446002544B17B
:1011500000F048F800212046FFF774FD00F06EFA19
:1011600005463DB94FF0805003490860BFF34F8FEB
:10117000BFF36F8F70BD000004ED00E01CB5124896
:1011800000210B465022CDE9001010A1114800F0BB
:1011900057F90446012C16D100BF282080F311888E
:1011A000BFF34F8FBFF36F8F00BF4FF0FF300A497F
:1011B0000860012009490860002009490860FFF71C
:1011C0004DFF00F071F81CBDA800001049444C45CB
:1011D000000000000B0E0000A400001090000010A2
:1011E0008800001002480068401C014908607047F0
:1011F000AC0000101248006818B1012011490860C5
:101200001DE000200F4908600F480068B0FA80F028
:10121000C0F11F0101EB81020C4B03EB820042681D
:101220005268426000F108024368934202D142686A
:10123000526842604268D268054B1A6000BF70472E
:10124000AC000010980000108C000010E068001046
:101250007400001000241248C10648600320087082
:101260001CE0FFF735FFAA204107087255200872DD
:10127000FFF740FF3CB10B48C06F40F00800094940
:10128000C867002406E00748806F40F00800054961
:10129000886701244FF4FA70FFF756FFE1E700007A
:1012A00048E801000080092010B50A48006840F4B1
:1012B0007800084908600846006840F078400860F7
:1012C000FFF728FF002004490860FEF75BFF0020BD
:1012D00010BD000020ED00E0B000001010B500BF10
:1012E000282080F31188BFF34F8FBFF36F8F00BFAB
:1012F00000F0D6F818B14FF080500449086000BFE4
:10130000002080F3118800BF10BD000004ED00E054
:101310002DE9F84307460D4690460DB9002601E039
:1013200007FB05F606F15000FFF72AFE044644B11C
:1013300004F1500943464A46294638460094FFF7CF
:1013400068FD2046BDE8F88370B505460E462C467C
:10135000FFF7BEFED4E90F12206801FB02006060B7
:101360000020A0632068A060E06B401E226C216812
:1013700000FB0210E060FF2084F8440084F8450080
:101380009EB9206908B9012000E00020A8B904F145
:10139000100000F013F980B14FF080500949086047
:1013A000BFF34F8FBFF36F8F07E004F11000FFF71B
:1013B00059FE04F12400FFF755FEFFF79BFE0120C4
:1013C00070BD000004ED00E02DE9F04705460E4633
:1013D0002C4600BF2821EFF3118081F31188BFF361
:1013E0004F8FBFF36F8F00BF8046D4F83890E06B0B
:1013F00048451DD994F945A009F10100A0630AF1FF
:10140000010070B9606A08B9012000E0002068B9E5
:1014100004F1240000F0D2F840B13EB10120306068
:1014200004E00AF1010040B284F84500012700E021
:10143000002700BF88F3118800BF3846BDE8F08759
:101440002DE9FF4F85B0804689461746DDE912AB8E
:10145000B800FFF795FD064656B15820FFF790FDFE
:1014600004460CB1266304E03046FEF746FF00E078
:1014700000247CB10020CDE900ABCDE902403A4622
:1014800049464046089BFFF7D9FC2046FFF726FC5B
:10149000012501E04FF0FF35284609B0BDE8F08F87
:1014A0002DE9F04100273A480068002863D1394807
:1014B0000068451C374805608DB93748D0F8008072
:1014C00036480068344908603448C0F80080344821
:1014D0000068401C32490860FFF72CFD00BF31480E
:1014E000006885423BD300BF2B480068006808B9FC
:1014F000012000E0002020B14FF0FF3029490860B2
:101500002CE025480068C068C4686668B54202D20D
:101510002448066022E0201DFFF77CFDA06A18B178
:1015200004F11800FFF776FD94F82C100120884094
:101530001D49096808431C490860E16A01EB810103
:101540001A4A02EB8100211DFFF7B6FD1849E06A37
:101550000968C96A8842C7D30127C5E700BF144894
:101560000068C06A00EB8000104951F82000012893
:1015700000D9012704E00F480068401C0D490860AD
:101580000D48006800B101273846BDE8F081000031
:10159000AC00001088000010780000107C000010E3
:1015A0009C000010A40000108C000010E0680010E7
:1015B00074000010940000109800001070B50646EA
:1015C000F068C46804F11800FFF724FD15480068AE
:1015D000A8B9201DFFF71EFD94F82C1001208840AB
:1015E00011490968084310490860E16A01EB81016B
:1015F0000E4A02EB8100211DFFF75EFD04E004F1BD
:1016000018010B48FFF758FD0A49E06A0968C96AE2
:10161000884204D9012501200749086000E000251F
:10162000284670BDAC0000108C000010E06800106F
:101630006C690010740000109800001070B5002450
:101640000026FFF745FD2E480068401E2C49086023
:101650000846006800284FD12A48006800284BD06F
:1016600024E02948C068C46804F11800FFF7D2FCE0
:10167000201DFFF7CFFC94F82C100120884023494F
:101680000968084321490860E16A01EB8101204AA9
:1016900002EB8100211DFFF70FFD1E49E06A09687A
:1016A000C96A884202D301201B49086016480068B5
:1016B00008B9012000E000200028D2D00CB1FFF7CB
:1016C00039FC1648056865B100BFFFF7E9FE10B1A7
:1016D0000120114908606D1E002DF6D100200F4930
:1016E00008600D48006838B1012630070C490860D1
:1016F000BFF34F8FBFF36F8FFFF7FCFC304670BD19
:10170000AC000010840000106C6900108C00001008
:10171000E0680010740000109800001094000010A1
:1017200004ED00E04417000000000010B4000000C9
:1017300000010000F8170000B4000010546B000016
:101740001C0100000000000000000000000000007C
:101750000100000000000000000000000000000088
:101760000000000000000000000000000000000079
:101770000000000000000000000000000000000069
:101780000000000000000000000000000000000059
:101790000000000000000000000E270700879303F0
:1017A00000879303006CDC020000000000000000D2
:1017B0000000000000000000000000000000000029
:1017C0000000000000000000000000000000000019
:1017D0000000000000000000000000000000000009
:1017E00000000000000000000000000000000000F9
:0817F00000000000AAAAAAAA49
:04000005000000C532
:00000001FF
